:020000040800F2
:100000006019002061020008D7240008CF210008F1
:10001000D5240008B90500082D2B000800000000B9
:10002000000000000000000000000000C9010008FE
:10003000C3060008000000000D020008592800084F
:100040007B0200087B0200087B0200087B0200089C
:100050007B0200087B0200087B0200087B0200088C
:100060007B0200087B0200087B0200088D06000866
:100070007B0200087B0200087B0200087B0200086C
:100080007B0200087B0200087B020008152B000899
:10009000212B0008BD050008C90500087B020008E7
:1000A0007B020008012900087B0200087B0200088F
:1000B0007B0200087B0200087B0200087B0200082C
:1000C0007B0200087B0200087B0200087B0200081C
:1000D0007B0200087B0200087B0200087B0200080C
:1000E0007B0200087B0200087B02000800F002F897
:1000F00000F05AF80AA090E8000C82448344AAF168
:100100000107DA4501D100F04FF8AFF2090EBAE865
:100110000F0013F0010F18BFFB1A43F0010318473B
:100120004C6E00006C6E00000A444FF0000C10F89A
:10013000013B13F0070408BF10F8014B1D1108BF65
:1001400010F8015B641E05D010F8016B641E01F805
:10015000016BF9D113F0080F1EBF10F8014BAD1C55
:100160000C1B09D16D1E58BF01F801CBFAD505E073
:1001700014F8016B01F8016B6D1EF9D59142D6D3CD
:10018000704700000023002400250026103A28BFF5
:1001900078C1FBD8520728BF30C148BF0B607047F9
:1001A0001FB51FBD10B510BD00F02EF91146FFF7A9
:1001B000F7FF03F0C3FD00F04CF903B4FFF7F2FFC3
:1001C00003BC00F04FF90000224B19680868B0E842
:1001D000F00F80F30988BFF36F8F4FF0000080F3BA
:1001E00011884EF00D0E70470000000006480068B0
:1001F000006880F3088862B661B6BFF34F8FBFF323
:100200006F8F00DF00BF00BF08ED00E0EFF3098053
:10021000BFF36F8F0F4B1A6820E9F00F106008B51D
:100220004FF0500080F31188BFF34F8FBFF36F8FF3
:1002300004F0F8FF4FF0000080F31188BDE808409B
:1002400019680868B0E8F00F80F30988BFF36F8F72
:10025000704700BF28000020EFF3058070470000C2
:100260000948804709480047FEE7FEE7FEE7FEE74A
:10027000FEE7FEE7FEE7FEE7FEE7FEE70448054986
:10028000054A064B70470000FD280008ED000008F5
:100290006013002060190020601500206015002008
:1002A000032A40F2308010F0030C00F0158011F8A2
:1002B000013BBCF1020F624498BF11F801CB00F87A
:1002C000013B38BF11F8013BA2F1040298BF00F8CE
:1002D00001CB38BF00F8013B11F0030300F025808B
:1002E000083AC0F0088051F8043B083A51F804CBB2
:1002F000A0E80810F5E7121D5CBF51F8043B40F878
:10030000043BAFF30080D20724BF11F8013B11F882
:1003100001CB48BF11F8012B24BF00F8013B00F8C6
:1003200001CB48BF00F8012B704710B5203AC0F050
:100330000B80B1E81850203AA0E81850B1E81850E6
:10034000A0E81850BFF4F5AF5FEA027C24BFB1E823
:100350001850A0E8185044BF18C918C0BDE8104094
:100360005FEA827C24BF51F8043B40F8043B08BF9D
:100370007047D20728BF31F8023B48BF11F8012B64
:1003800028BF20F8023B48BF00F8012B70474FF010
:10039000000200B5134694469646203922BFA0E8D5
:1003A0000C50A0E80C50B1F12001BFF4F7AF0907E1
:1003B00028BFA0E80C5048BF0CC05DF804EB8900D2
:1003C00028BF40F8042B08BF704748BF20F8022B15
:1003D00011F0804F18BF00F8012B7047704770472D
:1003E000704710B500F008F8006810BD10B504465D
:1003F00000F002F8046010BD0048704700130020B0
:1004000000487047001300207546FFF7F9FFAE461D
:1004100005006946534620F00700854618B020B510
:10042000FFF72CFFBDE820404FF000064FF000071B
:100430004FF000084FF0000B21F00701AC46ACE88C
:10044000C009ACE8C009ACE8C009ACE8C0098D46F9
:10045000704710B50446AFF300802046BDE8104059
:10046000FFF7ABBE01491820ABBEFEE72600020035
:100470007047000070B5044600688168C943C90729
:1004800017D1816821F00101816001F0D9F805469A
:100490000AE000BF01F0D4F8401B022804D920680C
:1004A0008068C043C00706D020688068C043C0078A
:1004B000F0D0002070BDA06A40F01000A062E06A99
:1004C00040F00100E062012070BD10B50146406AB5
:1004D000826A12F0500F05D0006A026BBDE810402E
:1004E00008461047816A41F4007181620168896899
:1004F000C1F3424107290CD1017B51B9816A21F432
:1005000080718162816AC90403D4816A41F001016A
:10051000816200F05FF910BD10B5406A816A41F058
:1005200040018162C16A41F00401C16200F054F9E6
:1005300010BD10B5406A00F04EF910BDF8B50026A8
:100540000446009600688168C943C9072DD08168B8
:1005500041F001018160164816490068B0FBF1F0D6
:1005600000E0401E00900028FBD101F069F805462C
:1005700016E000BF01F064F8401B022810D9206883
:100580008068C043C0070BD0A06A40F01000A06292
:10059000E06A40F00100E06284F824600120F8BDC8
:1005A00020688068C043C007E4D10020F8BD000087
:1005B0002400002040420F00FEE70000014800F048
:1005C000C1BB000098040020014800F0BBBB000044
:1005D00098040020F0B501F003064FEAC2044FEA88
:1005E000C3058BB08F0744EA460445EA460504D5A7
:1005F000D204CDE90024DA0403E05201CDE900245D
:100600005A01CDE90225CA08C1F38001CDE90412DF
:1006100001220021CDE906120E21099108926946B6
:1006200000F09EFA0BB0F0BD10B5044600F0A6FD38
:100630002068416941F0020141612068416941F04F
:10064000100141610949206888420DD100231A46F2
:1006500019462046FFF7BEFF00232046BDE81040A4
:100660001A460C21FFF7B6BF10BD00000064004021
:1006700000B587B00091002101910291CDE90313EB
:1006800006AB694600F004FA07B000BD014800F06F
:10069000CDBD00005404002030B590F84050012436
:1006A000AC40C56B6C60046863604368102B0368E2
:1006B00003D099600068C26030BD9A600068C16074
:1006C00030BD704701B5009801E0401E0090002841
:1006D000FBD108BD72B6FEE7F8B50024009490F88F
:1006E00024202546012A12D0012280F824204A68BD
:1006F0001F23072A0DD20668776B521E02EB820277
:1007000093409F430B6893401F43776319E0022097
:10071000F8BD06680D2A0AD2376BD21F02EB82029F
:1007200093409F430B6893401F43376309E0F76A88
:100730000D3A02EB820293409F430B6893401F43A4
:10074000F7620A68072306680A2A0AD3F7680A3A92
:1007500002EB420293409F438B6893401F43F76034
:1007600008E0376902EB420293409F438B68934055
:100770001F4337610A68102A01D0112A20D1124B79
:1007800002689A4217D193681B0219D4936843F404
:10079000000393600968102912D10C490C4A0968BA
:1007A000B1FBF2F101EB8101490000E0491E00912B
:1007B0000029FBD104E0816A41F02001816201241B
:1007C00080F824502046F8BD002401402400002079
:1007D00040420F0070477047704700002DE9F0411C
:1007E0004FF0000704003D467ED0A06A002628B9DD
:1007F000E66284F82460204600F07EF82046FFF789
:1008000039FEA16AC90600D420B1A06A40F01000E8
:10081000A06269E0A16A21F4885141F00201A1625D
:100820006268E169237B0A4347EA43010A43A168FE
:100830004FF48077B94209D0012907D05FF0000159
:1008400094F814C0BCF1010F02D00AE03946F7E772
:10085000F3B1A36A43F02003A362E36A43F0010308
:10086000E3622368D3F804C02CF4694C4CEA010C11
:10087000C3F804C021688B68DFF870C003EA0C037A
:1008800013438B60A168B9420BD0012909D00CE059
:10089000DFF85CC0A3690CEB43330B4343F4006106
:1008A000DFE7218A0D05A5F580152168CB6A23F4C1
:1008B00070032B43CB62216889680E4B194091422B
:1008C00008D1E662A16A21F0020141F00101A162B2
:1008D000BDE8F081A06A20F0020040F01000A062A4
:1008E000E06A40F00100E0620120F1E7FDF7E1FF7E
:1008F00000E0FFFFFE0E1FFF70B586B00025064624
:1009000000950195029503950068194988422DD1FB
:100910001849886940F400708861886900F40070A3
:100920000490886940F0040088618869694600F095
:100930000400049001200090032001900E4800F074
:1009400085FD0F4C0D48C4E900058020C4E9025024
:10095000400020618000C4E905052046E56100F003
:100960000FFD08B1FFF7B6FE3462666206B070BDD7
:10097000002401400010024000080140080002402D
:10098000540400202DE9F047894604463B4900689D
:100990003B4F0E1D9046884201D0B84207D13068C7
:1009A00010F4702F03D001252846BDE8F08794F895
:1009B000240001280CD0012084F824002046FFF7F1
:1009C000BDFD05004FF0000004D084F82400EBE7E3
:1009D0000220EAE7A16A40F60162914341F4807186
:1009E000A1622168B94218D1326812F4702F14D074
:1009F000A16A41F48011A1623168490505D5A16A57
:100A000021F4005141F48051A162A16AC9040AD5C0
:100A1000E16A21F00601E16206E0A26A22F4801296
:100A2000A2624968E9E7E06284F82400216A154877
:100A30008862216A1448C862216A144808632168E0
:100A40006FF0020008602068816841F48071816065
:100A5000216843464A464C31206A00F0BFFC2068BA
:100A60008168C1F342410729816803D041F48011B4
:100A7000816099E741F4A001FAE7000000240140F9
:100A800000280140CB0400083305000819050008C0
:100A9000F0B590F820500468A468012D05D0022D0F
:100AA00003D0416A41F4802157E014F0406F01D136
:100AB000E5004FD5C4F301640125A5401D608D6894
:100AC0004FF4C0739DB1CE6835434E6845EAC60504
:100AD000066803EB0417F5514FF4C275076805EB80
:100AE00004150E697E51097D012905D009E00E88A3
:100AF000CD6845EA4655EBE701684E5946F48076E5
:100B00004E511179D579567941EA056195792D04CF
:100B100045EA062529434FF4C676056806EB041618
:100B2000A9511178D57841EA0561957852782D045C
:100B300045EA022211434FF4C475026805EB04151F
:100B40005151006803EB0411425842F00102425037
:100B50000020F0BD416A41F4001141620120F0BD66
:100B600010B590F820300268012B07D0022B05D079
:100B7000416A41F480214162012010BDD2F8000297
:100B800040F00100C2F80002087D00F01F030120C0
:100B90009840D2F81C328343C2F81C32CB69B3B9F7
:100BA000D2F80C328343C2F80C328C894B6864F360
:100BB0001F434C6902EBC404C4F840320C890B6833
:100BC00064F31F434C6902EBC404C4F84432CB699C
:100BD000012B16D1D2F80C320343C2F80C320C8828
:100BE0004B6864F31F434C6902EBC404C4F8403201
:100BF0000C89CB6864F31F434C6902EBC404C4F84E
:100C000044328B69002BD2F804320FD053EA000330
:100C1000C2F804320B69002BD2F8143208D0034317
:100C2000C2F81432096A012904D008E08343EFE7CF
:100C30008343F5E7D2F81C120143C2F81C12D2F824
:100C4000000220F00100C2F80002002010BD704731
:100C500070B590F82040012C05D0022C03D0416AD9
:100C600041F4802128E0046809B32469A40720D056
:100C70004FF4D874056804EB01142D5915F00405E0
:100C8000956005682D591AD0ED08556005682C59F6
:100C900004F00204D4604FF4DA74056804EB011424
:100CA0002E5906F00F06082E0CD308250DE0E46837
:100CB000DCE7416A41F400114162012070BD6D0D15
:100CC0001560E3E72D5905F00F05156105682D59ED
:100CD000C5F30725956105682C59240C54614FF420
:100CE000DC72046802EB0112A4581C700468A4585A
:100CF000240A5C700468A458240C9C700468A258F0
:100D0000120EDA704FF4DE72046802EB0112A4587E
:100D10001C710468A458240A5C710468A458240C4B
:100D20009C710468A258120EDA71006829B1016939
:100D300041F020010161002070BDC16841F0200137
:100D4000C160F8E72DE9F05F0546006800244669B8
:100D5000D0F804908768D0F80CB0D0F810A0D0F884
:100D60001880F10748D0F90714D001218160B80735
:100D700003D5284600F02FFA0CE0780702D54FF48F
:100D8000006407E0380702D54FF4805402E028469B
:100D900000F020FAF80516D529684FF480708860B5
:100DA000B80503D5284600F018FA0CE0780502D5FE
:100DB00044F4005407E0380502D544F4804402E0CE
:100DC000284600F009FAF80316D529684FF4803058
:100DD0008860B80303D5284600F001FA0CE07803D8
:100DE00002D544F4004407E0380302D544F48034CB
:100DF00002E0284600F0F2F9300707D55FEACB6041
:100E000004D52968102044F40074C86070074FF0BE
:100E1000080707D55FEA0B7004D52868C760284625
:100E200000F072F9B00706D52868C068800702D0C4
:100E3000284600F06BF9700607D55FEACA6004D552
:100E40002968102044F480640861B00607D55FEA81
:100E50000A7004D528680761284600F071F9F00689
:100E600006D528680069800702D0284600F06AF994
:100E7000B00308D55FEAC96005D52968102048602D
:100E8000284600F079F9F00307D55FEA097004D528
:100E900028684760284600F0A3F9300446D55FEA89
:100EA000497040D5F00504D55FEAC87001D044F020
:100EB0000104B00504D55FEA887001D544F002044E
:100EC000700504D55FEA487001D544F0040430058C
:100ED00029D518F0700F26D008F07000402815D0E2
:100EE00006DC102809D020280AD0302816D10AE0C4
:100EF00050280ED0602811D10EE044F008040DE017
:100F000044F010040AE044F0200407E044F04004F8
:100F100004E044F0800401E044F4807428688169AE
:100F200021F070018161296804204860002C05D0FF
:100F3000686A204368622846FFF789FEBDE8F09F93
:100F400070B5040003D094F8200010B104E0012033
:100F500070BD204600F082F82068016841F0010170
:100F6000016000F06DFB0546052604E000F068FB1B
:100F7000401B0A2811D820684068C007F6D02068B6
:100F8000016821F00201016000F05AFB05460BE008
:100F900000F056FB401B0A2806D9606A40F4003076
:100FA000606284F82060D2E7206840688007EFD450
:100FB000207E0128206801683DD021F08001016079
:100FC000607E01282068016838D021F0400101606E
:100FD000A07E01282068016833D021F02001016043
:100FE000E07E0128206801682ED041F010010160E8
:100FF000207F01282068016829D021F008010160C4
:10100000607F01282068016824D021F0040101607C
:10101000D4E902010843D4E904121143084361688A
:10102000491E08432168C86100206062012084F8DD
:101030002000002070BD41F08001C0E741F0400178
:10104000C5E741F02001CAE721F01001CFE741F0E8
:101050000801D4E741F00401D9E7000010B586B0DB
:101060000021009101910291039100682349884277
:1010700042D12348C16941F00071C161C16901F0E9
:1010800000710491816941F00401816180691D4C06
:1010900000F0040004904FF4006000906946204680
:1010A00000F0D4F9A01400900220019003200390D6
:1010B0006946204600F0CAF900220521132000F0FD
:1010C00057FB132000F046FB00220521142000F0FE
:1010D0004FFB142000F03EFB00220521152000F0FC
:1010E00047FB152000F036FB00220521162000F0FA
:1010F0003FFB162000F02EFB06B010BD0064004040
:1011000000100240000801407047000030B589B06F
:1011100007AB6A460021FFF79BFD084D002400BF86
:1011200004EB440005EB8002009807A980B203F0AD
:101130008BFD641C042CF3DB09B030BD8812002049
:101140007047000030B589B007AB6A460121FFF750
:101150007FFD084D002400BF04EB440005EB800236
:10116000009807A980B203F06FFD641C042CF3DB28
:1011700009B030BD881200207047000070B50446E9
:1011800090F82000012804D0606A40F400206062DA
:1011900018E0022084F820002068016821F0010195
:1011A000016000F04DFA05460EE000BF00F048FA7D
:1011B000401B0A2808D9606A40F4003060620520AC
:1011C00084F82000012070BD20684068C007EDD180
:1011D000606270BD704770477047704770477047D6
:1011E000704710B5040002D0607910B106E001200C
:1011F00010BD00202071204600F004F8012060712D
:10120000002010BD08B500680649884208D106488C
:10121000416941F040014161406900F040000090A7
:1012200008BD000000300240001002402DE9F05FD0
:10123000C16B0C6801680B68D0F840C0042202FA48
:101240000CF2494DDFF824A1494E4A4FDFF828B18E
:10125000DFF828E122422CD05A072AD50A689206E4
:1012600003D40A6822F004020A600168A94201D18D
:10127000042219E0514501D1402215E0B14202D1CA
:101280004FF4806210E0B94202D14FF480420BE08B
:10129000594502D14FF4802206E0714502D14FF446
:1012A000800201E04FF080622F4908394A60C16A2C
:1012B0003BE04FF0020808FA0CF818EA040F4FF070
:1012C00000094FF0010235D05FEA837832D50B6810
:1012D0009B0605D40B6823F00A030B6080F82120DD
:1012E0000168A94201D1022219E0514501D1202211
:1012F00015E0B14202D14FF4007210E0B94202D1C0
:101300004FF400520BE0594502D14FF4003206E091
:10131000714502D14FF4001201E04FF00072124902
:1013200008394A6080F82090816A00291AD0BDE807
:10133000F05F0847082505FA0CF5254212D01B0777
:1013400010D50B6823F00E030B6090F84010C36BB0
:1013500002FA01F15960826380F8212080F8209020
:10136000016BE2E7BDE8F09F080002401C0002406C
:101370003000024044000240580002406C0002402D
:1013800030B528B308C8134914221944B1FBF2F14F
:101390008900C16310498163022141771A6843F6CD
:1013A000F0718A43D0E900142143D0E902452C436F
:1013B0002143046921434469214384692143114342
:1013C000196000214163012242770177084630BD50
:1013D000012030BDF8FFFDBF0000024070B504469B
:1013E00090F82000002501280CD0012084F820006E
:1013F00094F821600020012E06D084F820000225F8
:10140000284670BD022070BD022684F82160A063CA
:101410002068066826F0010606602046FFF73CF9C2
:10142000E06A00282068016802D041F00E0106E061
:1014300021F0040101602068016841F00A010160A7
:101440002068016841F001010160D9E72DE9F84FFA
:10145000DFF8B8910024A9F1040B23460F2709F106
:10146000040AABF1040EC9E00125A5402A40AA42B6
:101470007DD1674ED1F804C0ACEB0608B44532D03C
:1014800014DCBCF1030F3AD009DCBCF1000F2AD008
:10149000BCF1010F1CD0BCF1020F31D11DE0BCF139
:1014A000110F17D0BCF1120F2AD119E0B8F5881F1F
:1014B00019D006DCB8F5803F15D0B8F5801F1FD1D4
:1014C00011E0B8F5001F0ED0B8F5041F18D10AE0DE
:1014D000CB6815E0CB681B1D12E0CB6808330FE02A
:1014E000CB680C330CE08B682BB1012B4FF0080359
:1014F00003D0456104E0042302E0056100E000231D
:10150000FF2A01D8064601E000F104064FEA8405EF
:1015100001D9A5F12005D6F8008007FA05FC28EAD4
:101520000C0803FA05F548EA0508C6F800804D687E
:10153000ED0062D5374DAE6946F00106AE61AD698A
:1015400024F0030605F001050095334D06EB050C6C
:10155000DCF80850A607360F07FA06F825EA080552
:10156000DFF8B880404503D14FF0000817E044E0B1
:10157000DFF8AC80404502D14FF001080FE0DFF802
:10158000A480404502D14FF0020808E0DFF89880BF
:10159000404502D14FF0030801E04FF0040808FA7B
:1015A00006F848EA0508CCF808804D68D9F80060CC
:1015B000ED024D4601D5164300E096432E604D687E
:1015C000DAF80060AD02554601D5164300E09643B7
:1015D0002E604D68DBF80060AD035D4601D5164313
:1015E00000E096432E604D68DEF80060ED0375461E
:1015F00001D5164300E096432E60641C0D682A4610
:10160000E5407FF431AFBDE8F88F000008040140E9
:1016100000001110001002400000014000080140CD
:10162000000C014000100140001401408068084097
:1016300000D0012070470AB1016170470904FBE73F
:101640000148806870470000180000200248816847
:10165000027811448160704718000020074810B5D7
:10166000016841F010010160032000F0A1F80F2093
:1016700000F006F800F04AF8002010BD00200240FB
:1016800030B505461C4887B0816941F4006181612D
:10169000806906A900F40060009001A800F0A6F996
:1016A00000F0D4F91549164AB0FBF1F11548491E6E
:1016B0000260416040F2E7320021C0E9032181600D
:1016C000816100F08BFB040012D10E4800F0B4FBE6
:1016D00004000DD1192000F03DF8102D07D2002292
:1016E0002946192000F044F80748056000E001246D
:1016F00007B0204630BD00000010024040420F00FD
:10170000002C0140500500201C0000200F4808B5A7
:10171000816941F001018161816901F0010100915C
:10172000C16941F08051C161C069002200F0805060
:1017300000900F21901E00F01BF80548416821F031
:10174000E06141F00071416008BD000000100240FE
:1017500000000140002809DB00F01F020121914038
:101760004009800000F1E020C0F80011704700003F
:10177000F0B40E4B1B680C46C3F30223C3F10705FC
:10178000042D00D90425191D072901D2002300E0EA
:10179000DB1E012606FA05F1491E214099409E40B4
:1017A000761E16403143F0BC01F0D5B90CED00E0D7
:1017B000064900F0070208684FF6FF03184040EAA8
:1017C0000220034A10430860704700000CED00E05F
:1017D0000000FA052DE9F84305460078354CC007AE
:1017E00054D0E0690026C00008D4E06940F0805081
:1017F000E061E069012600F0805000902E48016809
:10180000C90512D40168804641F480710160FFF778
:1018100017FF074605E000BFFFF712FFC01B642853
:1018200023D8D8F80000C005F6D5206A10F440701F
:1018300021D0A98801F4407181421CD0206A1F493F
:10184000012220F440700A6000220A602062C00772
:1018500011D0FFF7F5FE074641F2883808E000BFD7
:10186000FFF7EEFEC11B414502D90320BDE8F88316
:10187000206A8007F4D5206A696820F44070084324
:1018800020621EB1E06920F08050E0612878800776
:1018900005D56068A96820F4404008436060287856
:1018A000C00605D56068E96820F4800008436060E0
:1018B0000020DBE70010024000700040400442427C
:1018C0002DE9F0470F46050061D0434E306800F027
:1018D0000700B84209D2306820F007003843306072
:1018E000306800F00700B84251D128683B4C8107AE
:1018F00012D5400703D5606840F4E0606060287846
:10190000000703D5606840F4605060606068A968B3
:1019100020F0F000084360602878C00728D068688D
:10192000012810D02168022810D0890700292EDA5A
:10193000616821F0030101436160FFF781FE804689
:1019400041F288390DE021688903EFE78901EDE76D
:10195000FFF776FEA0EB0801494502D90320BDE858
:10196000F0876068696800F00C00B0EB810FEFD180
:10197000306800F00700B8420BD9306820F007004B
:1019800038433060306800F00700B84201D00120D1
:10199000E5E72878400705D56068E96820F4E0604D
:1019A000084360602878000706D56068296920F43C
:1019B000605040EAC100606000F058F86168084A71
:1019C000C1F30311515CC84006490860064800682D
:1019D000FFF756FE0020C2E7002002400010024040
:1019E000C2690008240000201C0000200F220260B1
:1019F0000C4A536803F003034360536803F0F00399
:101A00008360536803F4E063C36052684FF4E0639B
:101A100003EAD20202610448006800F0070008608F
:101A200070470000001002400020024004480549B1
:101A300000684968044AC1F30221515CC8407047FC
:101A40002400002000100240D26900080448054923
:101A500000684968044AC1F3C221515CC84070471C
:101A60002400002000100240D26900080E4A51688C
:101A70000E4801F00C03042B11D0082B0FD10C4899
:101A8000C1F38343C903C05C0AD55168084AC1F356
:101A90004041921E515C054A5043B0FBF1F0704743
:101AA00004494843704700000010024000127A00C9
:101AB000B269000800093D002DE9F84F040070D01C
:101AC0002078C04DC00749D06868C0F38100012864
:101AD00007D06868C0F38100022809D16868C00394
:101AE00006D52868800339D560680028E7D035E03E
:101AF0006068B0F5803F0BD010B1B0F5A02F11D0C9
:101B0000286820F480302860286820F4802002E0D3
:101B1000286840F480302860606890B1FFF790FD3D
:101B200006460AE0286840F480202860F0E700BFFD
:101B3000FFF786FD801B642873D828688003F7D5DB
:101B40000CE0FFF77DFD064605E000BFFFF778FDDE
:101B5000801B6428F0D828688003F7D420789A4E38
:101B600080074FF001094FF0000839D5686810F080
:101B70000C0F07D06868C0F38100022809D168689B
:101B8000C00306D42868800714D52069012808D12D
:101B900010E02069B0B1C6F80090FFF751FD07468C
:101BA00005E00AE1FFF74CFDC01B0228C4D82868F5
:101BB0008007F7D52868616920F0F80040EAC10085
:101BC00028600DE0C6F80080FFF73AFD074604E004
:101BD000FFF736FDC01B022823D828688007F7D4FA
:101BE000207800072CD57948A169D9B1C0F80090B8
:101BF000FFF726FD074604E0FFF722FDC01B022881
:101C00000FD8686A8007F7D571484FF4FA51006819
:101C1000B0FBF1F0009000BF0098411E0091FAD295
:101C20000EE080E0C0F80080FFF70AFD074604E000
:101C3000FFF706FDC01B022875D8686A8007F7D435
:101C40002078400760D5E8690027C00008D4E8691B
:101C500040F08050E861E869012700F08050009072
:101C60005C480168C90513D40168834641F480715A
:101C70000160FFF7E5FC824606E000BFFFF7E0FCED
:101C8000A0EB0A0064284ED8DBF80000C005F5D5AB
:101C9000E06801280AD008B1052813D0286A20F08E
:101CA00001002862286A20F0040002E0286A40F05F
:101CB00001002862E06841F2883B98B1FFF7C0FC60
:101CC00082460BE0286A40F004002862EEE700BF7D
:101CD000FFF7B6FCA0EB0A0159455AD8286A8007DD
:101CE000F6D50CE0FFF7ACFC824605E0FFF7A8FC58
:101CF000A0EB0A0159454CD8286A8007F6D41FB1D9
:101D0000E86920F08050E861E06988B36968C1F350
:101D10008101022944D00228C6F8608004D0FFF770
:101D20008FFC044638E034E0FFF78AFC074604E005
:101D3000FFF786FCC01B02282BD828688001F7D447
:101D4000206AB0F5803F05D16868A16820F40030B2
:101D500008436860D4E908010843696821F47411F4
:101D600008436860C6F86090FFF76AFC044606E026
:101D700025E000BFFFF764FC001B022809D8286893
:101D80008001F7D51BE000BFFFF75AFC001B0228BB
:101D900002D90320BDE8F88F28688001F4D40EE052
:101DA0000128F7D06868226A00F48031914204D19A
:101DB000616A00F47010884201D00120EAE7002037
:101DC000E8E7000000100240000042428004424266
:101DD00024000020007000407047704710B50400D8
:101DE00003D094F83D0010B107E0012010BD0020A1
:101DF00084F83C00204600F01EF8022084F83D00E4
:101E0000211D206800F082FD012084F8460084F83E
:101E10003E0084F83F0084F8400084F8410084F8D4
:101E2000420084F8430084F8440084F8450084F8B4
:101E30003D00002010BD704790F83D10012901D0F1
:101E400001207047022180F83D100168CA6842F005
:101E50000102CA6000680B49884208D0B0F1804F87
:101E600005D00949884202D00849884204D18168D6
:101E700001F00701062903D0016841F0010101606A
:101E800000207047002C0140000400400008004082
:101E9000704770B50446006801694FF00005C943FA
:101EA000890715D4C168C943890711D4E91E0161A6
:101EB00001202077206880698007204602D0FFF744
:101EC000E7FF04E000F098F8204600F096F8257748
:101ED00020680169C943490717D4C168C943490744
:101EE00013D46FF00401016102202077206880691B
:101EF00010F4407F204602D0FFF7CAFF04E000F054
:101F00007BF8204600F079F8257720680169C943FD
:101F1000090716D4C168C943090712D46FF0080134
:101F20000161042020772068C0698007204602D024
:101F3000FFF7AEFF04E000F05FF8204600F05DF828
:101F4000257720680169C943C90617D4C168C94308
:101F5000C90613D46FF010010161082020772068B2
:101F6000C06910F4407F204602D0FFF791FF04E0E3
:101F700000F042F8204600F040F82577206801691B
:101F8000C943C90708D1C168C943C90704D1891E1B
:101F90000161204600F032F820680169C943090652
:101FA00009D4C168C943090605D46FF080010161F5
:101FB0002046FFF711FF20680169C943490609D48B
:101FC000C168C943490605D46FF04001016120464C
:101FD00000F01EF820680169C94389060BD4C16866
:101FE000C943890607D46FF0200101612046BDE88E
:101FF0007040FFF7F2BE70BD70477047006803493C
:10200000884201D1FFF722BB70470000002C01403D
:10201000704770B5040004D094F84100002510B159
:1020200006E0012070BD84F84050204600F024F8FE
:10203000242084F841002068C16821F40051C16067
:10204000204600F0CFFC2068016921F49041016135
:102050002068416921F02A0141612068C16841F48A
:102060000051C1606564202084F8410084F842007A
:102070006563002070BD000070B586B00024009438
:1020800001940294039403682648254E02210322FA
:102090000515B3421ED1836943F48043836183698C
:1020A00003F480430493836943F0040383618069EC
:1020B0001D4E00F0040004900802CDE900010392D7
:1020C00069463046FFF7C2F9CDE90054694630460B
:1020D000029420E0154EB3421FD1C36943F480231C
:1020E000C361C36903F480230493836943F0080345
:1020F00083618069CDE9005100F00800CDE903203B
:102100000B4D69462846FFF7A1F9E814CDE9000414
:10211000694628460294FFF799F906B070BD0000A1
:102120000038014000100240000801400048004013
:10213000000C01402DE9F843044690F841001F4689
:1021400016460D46202802D00220BDE8F8837DB156
:1021500076B100206064212084F84100FFF770FA16
:10216000A6848046E684A068B0F5805F02D003E0D4
:102170000120EAE7206910B12E4600250EE0002676
:102180000CE08021204600F089FCA0B9AEB116F821
:10219000010B21684860E08C401EE084E08C4346DF
:1021A0004FF0000200970028EBD14FF0400120468D
:1021B00000F074FC30B10320C7E735F8020BC0F320
:1021C0000800E6E7202084F841000020BDE7FEE794
:1021D0002DE9FF4178200124CDE900040220184EAA
:1021E00002900390002569463046FFF72FF96946B3
:1021F0001448FFF72BF9144F012240213846FFF70E
:102200001AFA012220213846FFF715FA0620CDE9F7
:102210000005694602943046FFF718F901220221B1
:102220003846FFF708FA002240213846FFF703FA44
:10223000012220213846FFF7FEF9BDE8FF810000AA
:10224000000C014000180140000801403EB5002488
:1022500011480094019402940E4984600160047353
:102260000475012505614FF460214460C161FEF7EA
:10227000B5FA08B1FEF72EFA07200094CDE9015017
:1022800069460548FEF728FA002801D0FEF722FA31
:102290003EBD000000240140240400200F4810B57A
:1022A0000D4901600421416000214FF440328160FA
:1022B000C0E9031212014261017641768176C1764E
:1022C00001774177FEF73CFE002803D0BDE81040BF
:1022D000FEF700BA10BD0000006400409804002022
:1022E000074910B5054808600846FEF77AFF002840
:1022F00003D0BDE81040FEF7EDB910BD003002403C
:1023000010000020094808B5416941F00101416110
:102310004069002200F00100009005210B20FFF72A
:1023200027FABDE808400B20FFF714BA001002405E
:1023300010B59CB01C2216496846FDF7F6FF002137
:10234000684601F028FD134C11491C22E0601C3145
:1023500007A8FDF7EAFF002107A801F01CFD0C49C2
:10236000A0601C2238310EA8FDF7DFFF00210EA867
:1023700001F011FD064920601C22543115A8FDF71B
:10238000D4FF002115A801F006FD60601CB010BD4F
:1023900040690008000000202DE9F04186B00024CB
:1023A0002C480094019402940394816941F0100137
:1023B0008161816901F010010491816941F020017E
:1023C0008161816901F020010491816941F004017A
:1023D0008161816901F004010491816941F0080182
:1023E000816180691C4F00F008004FF40055049093
:1023F000002229463846FFF71EF9DFF860800022E8
:1024000078214046FFF717F900950226012503962B
:10241000CDE9015469463846FFF718F88620CDE922
:102420000004694640460294FFF710F87820CDE991
:102430000005CDE9024669464046FFF707F8072048
:10244000CDE90004694606480294FEF7FFFF06B096
:10245000BDE8F0810010024000100140000801407A
:10246000000C01400C4810B50A4901604FF4E131FD
:102470004160002181600C22C160C0E904128161C9
:10248000C161FFF7C6FD002803D0BDE81040FEF78C
:1024900021B910BD00380140C00400200C4810B51F
:1024A0000A4901604FF4E1314160002181600C2252
:1024B000C160C0E904128161C161FFF7AAFD002873
:1024C00003D0BDE81040FEF705B910BD004800403C
:1024D00008050020FEE7FEE71FB50FA10522D1E9A0
:1024E0000001CDE9020102A9302000F07FF80522A9
:1024F0006946102000F014F8002069460A5CA52AFD
:1025000003D1401CC0B20528F8D3052802D0012011
:1025100004B010BD0020FBE7A5A5A5A5A5000000FF
:102520002DE9F041DFF83C8015460F4604460022B5
:1025300020214046FFF77FF8204600F09DF8064630
:10254000002405E0002000F097F83855641CE4B240
:10255000AC42F7D3012220214046FFF76CF8304609
:10256000BDE8F0810008014070B50A4D0446002224
:1025700020212846FFF75FF8204600F07DF8002074
:1025800000F07AF80446012220212846FFF753F88C
:10259000204670BD0008014070B5134D044600226E
:1025A00040212846FFF747F820222146A02000F0CE
:1025B0001DF8012240212846FFF73DF80720FFF7CC
:1025C000D3FF04460146272000F034F8E00605D585
:1025D000FF21E12000F02EF8102070BDA00601D5EB
:1025E000202070BDFF2070BD000801402DE9F041A2
:1025F000DFF83C8016460D46044600222021404666
:10260000FFF719F8204600F037F80746002405E0E8
:1026100015F8010B00F030F8641CE4B2B442F7D3B3
:10262000012220214046FFF706F83846BDE8F08138
:102630000008014070B50B4D0E46044600222021D3
:102640002846FEF7F8FF204600F016F8044630460C
:1026500000F012F8012220212846FEF7ECFF204668
:1026600070BD000000080140002303804380838088
:10267000C38001814281704770B5154E0446002524
:10268000200601D5012200E0002208213046FEF795
:10269000D2FF6006040E012210213046FEF7CBFF68
:1026A000FF20FEF70FF804213046FEF7BFFF08B108
:1026B00044F00104002210213046FEF7BCFFFF2049
:1026C000FEF700F86D1CADB2082DD9D3204670BDC1
:1026D0000008014042F21074204601F050FBFBE775
:1026E00088B0FFF775FDFFF7F7FE00F045F901F040
:1026F00053F901224A494B48FEF744F902F06CFEB7
:10270000474D4FF0010A4FF0000B2D1F4FF0A50968
:10271000454C02212046FEF789FFE8B185F800B05C
:1027200004212046FEF782FFC8B185F801B03F487A
:102730003F4C00F8019B2168016061684160A1681D
:102740008160E168C1604FF08340E8603748FFF77F
:1027500023FF202806D007E085F800A0E0E785F8F1
:1027600001A0E4E73348A8601A2101A8FDF70FFE95
:10277000206803F025FD304E304B324603F036FC26
:1027800002F0F6FE20600746606803F019FD2C4A4F
:102790002C4B02F01FFF02F0EBFE60608046A06849
:1027A00003F00EFD3246284B02F014FF02F0E0FE6B
:1027B000A0600646E06803F003FD244A244B02F0C3
:1027C00009FF02F0D5FEE060CDE90078CDE90260B6
:1027D000164C1E2620346F4684F80090A4F8016041
:1027E000A878E070401CA8700521204600F008FD84
:1027F00040F20230A4F8050032463946E01DFDF7EC
:102800004FFD2721204600F0E7FC322327222146F6
:102810001048FFF78FFC0A2001F0B1FA78E70000BA
:10282000C401002024040020000C0140B812002044
:10283000B001002000802644B81E85EB51B8EE3F61
:1028400085EB51B81E85DB3F51B89E3F1F85EB518C
:10285000B81EE53F0805002010B5502080F3118810
:10286000BFF34F8FBFF36F8F02F0BCFD18B1044967
:102870004FF080500860002080F3118810BD0000E8
:1028800004ED00E030B593B028216846FDF77FFDE8
:1028900014210AA8FDF77BFD002501200F95109556
:1028A0001195010412958DE8230004904FF4E01077
:1028B000CDE90810022407946846FFF7FDF808B137
:1028C00072B6FEE70AA90F2081E831004FF480605C
:1028D000CDE90D0502210AA8FEF7F2FF08B172B694
:1028E000FEE74FF4004011900F940FA8FEF772FF1F
:1028F000002801D072B6FEE713B030BD704700006B
:102900000148FFF7C6BA000050050020F0B5026884
:10291000164B174C174D4FF08047984205D0B842E0
:1029200003D0A04201D0A84203D122F070064A6829
:102930003243984205D0B84203D0A04201D0A84209
:1029400003D122F44074CA6822434C6922F0800209
:10295000224302608A68C2620A688262984201D198
:102960000969016301214161F0BD0000002C0140B3
:10297000000400400008004010B5184C002240211F
:102980002046FEF758FE052215493020FFF72EFE9F
:1029900013490522491D2A20FFF728FE0121212085
:1029A000FFF748FE01212220FFF744FE1A212420D0
:1029B000FFF740FE28212520FFF73CFE0F212620AF
:1029C000FFF738FE0E212020FFF734FE20460122BB
:1029D000BDE810404021FEF72EBE00000008014077
:1029E000DA69000870B5044600680169E26821F4FC
:1029F0004051114301612169A0680843616908439E
:102A00002168CA6841F20C639A430243CA60206895
:102A10004169A26921F44071114341611E49206856
:102A2000884202D1FFF712F801E0FEF7FFFF00EB4A
:102A3000C00101EB0012606864218000B2FBF0F37A
:102A4000B3FBF1F36FF018067343B2FBF0F5B2FB82
:102A5000F0F605EB8305322303EB0515B5FBF1F525
:102A6000B6FBF1F605F0F00505EB0615B2FBF0F646
:102A7000B2FBF0F0B0FBF1F06FF01802504306EB40
:102A8000800003EB0010B0FBF1F0216800F00F00B4
:102A90002844886070BD0000003801402DE9F041F5
:102AA000984617460E460446069D27E0681C25D02A
:102AB0002DB1FEF7C5FDA0EB0800A8421ED9206885
:102AC0000C3050E8001F21F4D07140E80012002AB9
:102AD000F5D12068143050E8001F21F0010140E8D2
:102AE0000012002AF5D1202084F8410084F8420029
:102AF000002084F840000320BDE8F08120680068D1
:102B000036EA000004D00020B842CFD00020F3E71E
:102B10000120F9E70148FEF715B9000098040020EC
:102B20000148FEF70FB9000098040020FEE74900B5
:102B300050EAC12018BF04204A0D18BF40F0010020
:102B400040F2FF72B2EB515F08BF40F00200012873
:102B500008BF052070470907090E002804DB00F1B3
:102B6000E02080F80014704700F00F0000F1E02032
:102B700080F8141D704700002DE9F74F144694B0FB
:102B80000021C4E902111599079121F00045C949B6
:102B90008D4206DC1599C4E9000117B00020BDE89C
:102BA000F08FC549DFF814A3A9423CDD0799C44E54
:102BB0000029C44FC44A1599534619DD03F016FA8B
:102BC000554506D0C14AC24B03F010FAC4E90001D2
:102BD0000AE04FF0D352BE4B03F008FA32463B46B0
:102BE00003F004FAC4E9000117B00120BDE8F08F3A
:102BF00002F0F0FC554506D0B44AB54B02F0EAFCB1
:102C0000C4E900010AE04FF0D352B14B02F0E2FCFC
:102C100032463B4602F0DEFCC4E9000117B04FF03B
:102C2000FF30BDE8F08FAB49A942159978DB21F060
:102C3000004183468846A84AA84B02F0B1FF002213
:102C4000A74B02F0C7FC02F015FF099002F041FF0C
:102C500006460F469C4A534602F0A2FF43465A4698
:102C600003F0D2F880468A46984A994B3046394656
:102C700002F096FF2A0D01250B924246534603F0BF
:102C8000C3F8032DC4E9000139D00B98C1F30A51F0
:102C9000401A05EB45111139814230DA9148C3469B
:102CA000784400EB0510CDF80CA00C90D0E900237F
:102CB0003046394602F074FF02460B4604910690F6
:102CC0005846039903F092F980468A4602460B461D
:102CD0005846039903F08AF9049B069A03F086F993
:102CE00083460C9803913946D0E90223304602F01E
:102CF00057FF5A46039B03F079F96D1CBDE707980F
:102D00000028A2BF099817B0BDE8F08F616881F074
:102D100000416160099817B04042BDE8F08FFFE7BD
:102D200084461598C1F31301C0F30A50A0F2F530A0
:102D30004FEA601800F01F06C6F120001390002033
:102D40000690079041F4801E05206D4676B1664AD4
:102D500008EB00017A4452F8213002EB8101B340C4
:102D60004A68139922FA01F1194305E05F4908EB1B
:102D70000002794451F82210A1FB0E27A1FB0C138D
:102D80001A449A4234BF0123002303EB070A05EBE0
:102D90008003D3E901B70F448F4234BF01210021E2
:102DA00093448B4411B1934502D903E0934501D27A
:102DB000012100E00021C3E901B7514445F820108A
:102DC000011EA0F10100C1DC0298059F00F1005036
:102DD000800F12900298DDE90356800002F079FE20
:102DE000834628460D9102F08BFE6FF01D0203F022
:102DF0003AFDCDE90E01304602F082FE6FF03D0251
:102E000003F031FD80468A46384602F079FE6FF0C5
:102E10005D0203F028FD074642465346119102F039
:102E2000D9FBDDE90E2302F0D5FB5A460D9B02F0DB
:102E3000D1FB00250E465A4628460D9B03F0D6F8D6
:102E4000DDE90E2303F0D2F84246534603F0CEF8F4
:102E50003A46119B02F0D8FFDFF898A0244A534667
:102E600002F09EFE07468846234A244B31462846F8
:102E700002F096FE3A46434602F0ACFB074688460F
:102E80004FF0A84253463146284602F089FE3A46A2
:102E9000434602F09FFB159A12F0004F04D0129A9D
:102EA00081F0004152421292C4E90001129817B019
:102EB000BDE8F08FFB21E93F7CD90240FB21F93FBF
:102EC0007370032E8A19A33B000040543163621AC9
:102ED00061B4D03DFB21394183C8C96D305FE43F07
:102EE0000000E03F9C41000018410000FA40000053
:102EF000182D4454FB21F93D3326A611460B113CF5
:102F00002DE9FF4D21F0004807460C46B8F1795FE6
:102F100008DA02F0AFFD002801BF0020324904B0FA
:102F2000BDE8F08D3A4623461046194602F038FEB9
:102F3000054602462D480E460B460621784400F011
:102F40005DF82A46334602F02BFEDDE90223824675
:102F50008B463846214602F023FE04460F46524671
:102F60005B462846314602F01BFE22463B4603F0F4
:102F70003DF807468A464FF0FF322846314603F0B7
:102F800072FC1B4A90450ADA3A46534603F02EF883
:102F900004B00022BDE8F04D134B02F035BF154AD6
:102FA0004245A8BFA8F500154FF00004B8BF124D68
:102FB00022462B4603F01AF80646884622462B4640
:102FC0000020094903F012F804460D463A465346DC
:102FD0003046414603F00AF804B022462B46BDE8CD
:102FE000F04D02F011BF00000000F03FC83E0000AD
:102FF0003333D33F0000E93F0000D23F2DE9F041D9
:103000004F1E00EBC7010446D1E9000115461E46DC
:1030100037F006020DD02A46334602F0C1FD7F1E6E
:1030200004EBC703D3E9002302F0D4FA37F0060219
:10303000F1D1022F25D0042F13D0062F18BFBDE8E1
:10304000F0812A46334602F0ABFDD4E90A2302F0B0
:10305000C1FA2A46334602F0A3FDD4E9082302F060
:10306000B9FA2A46334602F09BFDD4E9062302F062
:10307000B1FA2A46334602F093FDD4E9042302F064
:10308000A9FA2A46334602F08BFDD4E9022302F066
:10309000A1FA2A46334602F083FDD4E90023BDE8B5
:1030A000F04102F097BA00002DE9FF4D054621F0EE
:1030B000004084B00C46B0F1795F0BDA2846FFF788
:1030C00036FD042808BF00F07FF8284608B02146E6
:1030D000BDE8F08D2A460B46104602F061FD06461B
:1030E0000F462A46234602F05BFD804626488A4664
:1030F00032463B4605217844FFF780FF834610980F
:10310000029160B3214A224B4046514602F048FDED
:10311000CDE900015A4640465146029B02F040FD6F
:1031200082468846DDE906014FF0FF3203F09BFB43
:103130005246434602F05AFF32463B4602F030FD0B
:10314000DDE9062302F052FFDDE9002302F04EFF25
:1031500008B02A462346BDE8F04D02F055BE0B46A6
:103160005A463046394602F01BFD084A084B02F029
:1031700031FA4246534602F013FD08B02A46234670
:10318000BDE8F04D02F026BA0E3E000049555555F7
:103190005555C5BF002213461046014902F0D6BA64
:1031A0000000F03F012203F05EBB02F013BA0022E0
:1031B00013461046114602F0C9BA40F2013200200F
:1031C0004FF0E04103F04FBB024A0020110703F02B
:1031D0004ABB000001FDFFFF30B50C4605000CD0D6
:1031E000022C0AD90548A11E0288284600F0B0FB2F
:1031F000291901F8020D000A487030BD880000202E
:1032000030B50C46050008D0022C06D9FF22611EFD
:1032100000F0B4FB291901F8010C30BD2DE9F84F7D
:1032200004460D4621F0004000917349814211DCB3
:103230007249884201DC06D12CB120462946BDE8FE
:10324000F84FFFF7AFBF6E48002DCCBF6D496E49F8
:10325000BDE8F88F6D49814211DD6D498142D8BFCB
:103260004FF0FF366DDD20462946FFF760FC04284D
:1032700008BFFFF7A9FF20462946BDE8F88F65493A
:10328000654F25F00045814233DD6449814219DDF7
:10329000002632464FF080432046294602F09AF934
:1032A00080468A4601222046294603F0DCFA0022A5
:1032B0003B4602F09BFE4246534602F047FA044664
:1032C0000D463EE001260022BA463B4620462946EE
:1032D00002F080F980460F460022534620462946D8
:1032E00002F084FE42463B4602F030FA04460D46A8
:1032F00027E04B4981421BDDDFF828A1022600228E
:1033000053462046294602F04BFC00223B4602F081
:1033100061F980460F46002253462046294602F0B6
:1033200065FE42463B4602F011FA04460D4608E0AF
:10333000032622462B4600203B4902F007FA0446AA
:103340000D4622462B461046194602F029FC8B46B4
:10335000824602460B4602F023FC074602463348EB
:1033600088460B4606217844FFF748FE52465B46E6
:1033700002F016FC82462E488B463A46434605210B
:103380007844FFF73BFE3A46434602F009FC02460A
:103390000B46002E504659460CDA02F01BF9224625
:1033A0002B4602F0FDFB01B022462B46BDE8F04F54
:1033B00002F02ABD02F00EF922462B4602F0F0FB85
:1033C0001C4A7A4402EBC603D3E9002302F00EFE46
:1033D00022462B4602F00AFE174A7A4402EBC60345
:1033E000D3E9002302F010FD009A002AB8BF81F053
:1033F0000041BDE8F88F0000000010440000F07F9D
:10340000182D4454FB21F93FFB21F9BF0000DC3F9C
:103410000000203E0000F33F0000F03F0000E63FC8
:10342000008003400000F83F0000F0BF6E3A00004B
:103430002C3A0000CA390000923900002DE9F04D05
:103440009446CCF1000423F000464CEA0404594FA2
:1034500046EAD4749A46884621F00042BC4206D817
:10346000454240EA050442EAD474BC4204D9BDE8AE
:10347000F04D6246FFF799BEAAF14055A5F17F6570
:1034800055EA0C040BD0022404EAAA744A4DDFF872
:103490002CE144EAD87452EA000B04D00CE0BDE8F9
:1034A000F04DFFF7BBBE002C14BF012CBDE8F08D22
:1034B000022C30D0032C32D056EA0C0B0AD0BE427C
:1034C00020D1BA4209D126F0804622F0804233460C
:1034D000114617E000291ADB25E0DFF8E4B0FB44D1
:1034E000002C04BFDBE90001BDE8F08D012C02BF18
:1034F000DBE9000181F00041BDE8F08D022C0AD02B
:10350000032C0CD0BA4212D1B8F1000F0BDA2A48C2
:103510002C49BDE8F08D28462B49BDE8F08D2846A2
:103520007146BDE8F08D24482849BDE8F08D921B16
:1035300012153C2AC4BF204F244E10DCBAF1000FF4
:10354000BEBF12F13C0F00273E4608DB624602F088
:10355000FDF821F00041FFF761FE07460E4694B1E9
:10356000012C08BF86F000460DD0194A194B022CD9
:103570003846314615D002F039FD2A46BDE8F04DF7
:10358000114B02F033BD002213463846314602F09B
:1035900035FA04BF0220FCF729FF38463146BDE862
:1035A000F08D02F023FD2A46BDE8F04D064B02F0F7
:1035B0002BBC00000000F07F182D4454FB2109C0F3
:1035C00056390000FB21F9BFFB210940FB21F93FDF
:1035D000075C143326A6A13C2DE9F74F94B00546AD
:1035E0001446159802F0ECFDCDE90101284602F0E1
:1035F000E7FD02460B4603910090DDE90101FFF76C
:103600001DFFA348039B009A00F0EFFB8246A048F1
:103610008B462830039B009A00F0E7FBCDE90910A8
:103620009B48039B7830009A00F0DFFB06468946F2
:103630002946159802F064FE02F0C2FD88469449BE
:10364000074680390022D1E918014FF0804300F08D
:10365000EFFB06910E90DDE9010100224FF080435F
:1036600000F0E6FB0D91109000224FF0804303998B
:10367000009800F0DDFB0D9B109A01F0ABFF069B5C
:103680000E9A02F051FA15D225604FF080460022C2
:1036900033460399009800F0CBFB0D467C49074662
:1036A00080390022D1E91801334600F0C1FB3A46C7
:1036B0002B46D3E0DDE9010152465B4602F06EFB8A
:1036C0007ED2744885427FD2734885427CDADDE938
:1036D000010152465B4602F089FC3A46434602F03D
:1036E00035F8039B009A02F08FFB0E468B46039938
:1036F00005460B916A49DDF800A06848CDE90E0146
:103700000020A94612905246484659460B9B01F0AC
:1037100061FF4FF0FF3203F0A6F8CDE90201CDE9D9
:10372000000102460B465A4800F05FFBCDE90C0150
:10373000DDE900013A46434602F032FADDE90C23A6
:10374000CDE9000102F052FCDDE90E2321F0004139
:1037500002F0EAF90CD25246484659460B9B01F05A
:1037600039FF4FF0FF3203F07EF805460E4618E0B1
:10377000DDE902210B46464800F037FB02460B46C6
:10378000DDE9000102F0D0F9DDE9020102D2814653
:103790008B4601E082460B911298401C12906428DF
:1037A000B1DB2846314601F0E3FE20603A4643464D
:1037B0002846314602F0F4F901F0DAFE606000E0DC
:1037C00002E017B0BDE8F08F3648374928448842F8
:1037D0000AD2DDE90101DDE9093202F0A5F903D2DF
:1037E0002560DDE90910E7E72E48C04385423AD855
:1037F0002E48854237DC4FF0804A00225346039919
:10380000009800F015FBDFF888B00746ABF1800B9D
:103810008846DBE918010022534600F009FB3A46CE
:10382000434602F0E3FB01F0AFFB02460B46DDE945
:10383000010102F079F916D225600022564653465E
:103840000399009800F0F4FA05460F46DBE91801E9
:103850000022334600F0ECFA2A463B4602F0C6FB53
:1038600001F092FBA8E711481149C043284488425F
:103870000AD2DDE9010132464B4602F055F903D286
:1038800030464946256097E72560159896E7000081
:10389000100100200000C3C30080CA439A9999997F
:1038A0009999B93FFFFFF33CFFFFB6000000AC421F
:1038B000FF7F1E0100B5244B21F0004287B09A42E1
:1038C000DCBF0022134629DD204B9A4208D140B9C3
:1038D0004FF00100FCF78AFDFFF769FC07B000BD5F
:1038E00003DBFFF75FFC07B000BD02AAFFF744F956
:1038F00010F0030104BF0DF1080C9CE80F000DD07F
:10390000012001290ED0022914D00DF1080C0090DD
:103910009CE80F00FFF7C8FB07B000BDFFF7F0FA07
:1039200007B000BD0DF1080C00909CE80F00FFF7F8
:10393000BBFB05E00DF1080C9CE80F00FFF7E0FA77
:1039400007B081F0004100BDFB21E93F0000F07F9E
:1039500010B558B1084C491E0BD310F8013B534029
:10396000DBB234F8133083EA1222F4E74FF6FF702B
:1039700010BD104610BD0000E46A000810B5054CEB
:1039800004E000BF10F8013B5340E25C491EF9D24D
:10399000104610BDE469000870B588B00024062008
:1039A000012502268DE8710069460648FDF74EFDA7
:1039B00004A9802081E871000348FDF747FD08B0A5
:1039C00070BD0000000C01400008014088B0CD48E7
:1039D000FCF72AFECC4D00244FF4007604F20120BF
:1039E00082B204EB440005EB8000B1463146FEF79D
:1039F0003BFE641C042CF1DBC44C28882083A8897E
:103A00006083288BA083A88CE08304E0288820832F
:103A1000642000F0B4F9208B0028F7D004E0A889D6
:103A20006083642000F0ABF9608B0028F7D004E0DD
:103A3000288BA083642000F0A2F9A08B0028F7D087
:103A400004E0A88CE083642000F099F9E08B002862
:103A5000F7D0208B2081608BA081A08B2082E08B0F
:103A6000DFF8ACA2A082A8464FF47A6BB8F90060E8
:103A70006681B8F9020045460028B4F90800A6EBB3
:103A8000000004DD504507DA2088401C03E058455B
:103A900002DD2088401E2080B4F91800301A02F0A0
:103AA000F1FC616B019102F039FD0746B4F90000A9
:103AB00002F0E8FC216B009102F030FD394602F083
:103AC000ABFB206203902681B5F90C60E681B5F965
:103AD0000E000028B4F90C00A6EB000004DD5045F0
:103AE00007DA6088401C03E0584502DD6088401E0C
:103AF0006080B4F91A00301A02F0C4FC019902F097
:103B00000DFD0746B4F9020002F0BCFC009902F07A
:103B100005FD394602F080FB60620290A681A8464E
:103B2000B5F918506582B8F91A000028B4F91000E8
:103B3000A5EB000004DD504507DAA088401C03E037
:103B4000584502DDA088401EA080B4F91C00B4F9DD
:103B500004702E1AC7EB473030444000404202F058
:103B600091FC6C4902F0DAFC6B4902F0C9FB20645D
:103B7000304602F087FC019902F0D0FC0646384638
:103B800002F080FC009902F0C9FC314602F044FBCF
:103B9000A0622582B8F92450E582B8F926000028F1
:103BA000B4F91400A5EB000004DD504507DAE08805
:103BB000401C03E0584502DDE088401EE080B4F977
:103BC0001E00B4F906702E1AC7EB4730304440008F
:103BD00002F058FC4F4902F0A1FC4F4902F090FB63
:103BE0006064304602F04EFC019902F097FC0646F4
:103BF000384602F047FC009902F090FC314602F092
:103C00000BFBE062A582DDE9021002F085FD4FF0BA
:103C10003F45294602F082FC02F0D2FA3F4A404B6F
:103C200001F0BEFF01F0A4FCE063DDE9021002F048
:103C3000F3FA294602F072FC02F0C2FA394A3A4B12
:103C400001F0AEFF01F094FC304DA06368352968A7
:103C500002F030FC01D22868A0636968A06B02F012
:103C600029FD01D26868A063284AD4E90E017032A8
:103C7000FFF7B2FC254D01207835CDE90005A5F10F
:103C800008002A4A03C8134600F0F4FF05F1A80013
:103C90002968016069684160216C8160616CC16064
:103CA000206A616D074602F037FD0546A064606A30
:103CB000A16D064602F030FDE0641D49C4E91576A9
:103CC0008D4202DD4FF4FA7505E01A4A954201D3A0
:103CD000194D00E00025884202DD4FF4FA7105E03D
:103CE0001449884201D3144900E00021054A002309
:103CF000CDE900921A46284601F0D8F8022000F0DB
:103D00003EF8B3E6980400208812002090000020BE
:103D100060F0FFFFD80F494000F8FF459A99999944
:103D200099990940CDCCCCCCCCCC144000005C435C
:103D30008FC2F53C8FC2F5BC0CFEFFFFFDF78EFC79
:103D4000FEF7A0FDFEF728FBFEF7DCFAFEF77EFA91
:103D5000FEF7A4FAFEF7C4FAFEF784FBFEF79EFB1B
:103D6000FEF7E6FA00F012F8FEE70146002084298B
:103D700000D0C81C70470A2000F001F8FBE710B51E
:103D800000B9012001F0EAF9002010BD10B501F0E2
:103D90000BFA002010BD7FB50D4604464169B0F90D
:103DA000080081B1A16971B1FFF7DFFFD4E9051205
:103DB0008DE80700D4E900102B46226901F0E1FAF2
:103DC000039004B070BDFFF7D0FF03A9CDE9000157
:103DD000208A2B4682B2D4E9001001F0A5FA01280E
:103DE00001D00020EDE70398EBE72DE9F047002430
:103DF00017469846814625462646C6F1040001F03E
:103E000068FE02460B463846414600F011F809EBC1
:103E1000C603D3E9002301F0C3FE22462B4601F07E
:103E2000D9FB761C04460D46052EE6DBBDE8F0877F
:103E30002DE9F04D1D460C4698B0174621F0004183
:103E400023F00043002814BF4FF0010C4FF0000C8A
:103E50000CEB440CFE4A0CEB02064FEA620C664582
:103E60002BD33E0018BF012606EB45061644F94A3F
:103E7000964222D3F84A53EA070C02D0944205D165
:103E800048B918B000201146BDE8F08D002808BFE1
:103E90004FF0000C01D04FF0010C0CEB440212F576
:103EA000001F0AD8002F14BF4FF0010C4FF0000C78
:103EB0000CEB450212F5001F07D918B03A462B4605
:103EC0002146BDE8F04DFFF770B90022DFF88CA362
:103ED000002CB8BF534526DADFF884C36345A8BF7A
:103EE000022220DADFF870C39C451CDCDFF874C3C3
:103EF0000CEB235CBCF1140F08DDCCF1340627FA7F
:103F000006FC0CFA06F6BE420DD108E05FB9CCF112
:103F1000140623FA06FC0CFA06F69E4203D10CF0B6
:103F20000102C2F1020251EA000C19D1002D17DA88
:103F3000002C18BF022A01D0012A07D00220FCF76A
:103F400055FA18B0BDE8F04DFFF724B90220FCF790
:103F50004DFAFFF71FF918B081F00041BDE8F08D70
:103F6000B7F1000C6CD1534525D104F1804212F514
:103F7000801201BF00280020B74918B008BFBDE873
:103F8000F08DB548884207DC002DA1BF6046294668
:103F900018B0BDE8F08D07E0281E05DA80F000417A
:103FA00018B06046BDE8F08DAF497944D1E9000111
:103FB00018B0BDE8F08DDFF8A0C2634525D1002D13
:103FC0001FDA19B1514512D1D8B909E0002840F0E3
:103FD000EC82A24A214618B062F31E01BDE8F08DC2
:103FE0000020214618B060F31E01BDE8F08D08DA0C
:103FF00018B02346BDE8F04D02460020614601F0AE
:10400000A5BB18B02146BDE8F08D514518DAB5F1D1
:10401000804F0DD0A5F1005CBCF1FF5C10D1B4F174
:10402000000C0DDB18B06146BDE8F04D00F0ACBFF0
:10403000234618B00246BDE8F04D194601F0B0BD68
:10404000060024F0004C3BD1D9B1514533D1002CAE
:1040500006DD002DA1BF0020514618B0BDE8F08D4F
:10406000002C01DD002D1BDB002C13DA002D11DBF1
:10407000012A4FF0000014BF78497C4918B0BDE810
:10408000F08D022A18BF002C0AD0012A08D1002C7A
:1040900006DA0AE0002CB8BF002D11DA012A04D09C
:1040A000002018B00146BDE8F08D18B000204FF098
:1040B0000041BDE8F08DA1F14050B0F17F601AD011
:1040C000012000EBE47050EA020421D0624C521E41
:1040D0004FF0000B104304BF4FF0000B644C6548D9
:1040E00083427CDD644A654893421FDD884217DBCA
:1040F000002D25DB37E0002C00DA4AB1022A0CBF84
:1041000001204FF0FF3018B0BDE8F04D01F0E1BCE8
:104110000120FCF76BF918B0BDE8F04DFFF747B888
:104120004D4A8A4202DC002D0ADC1CE0814202DAA0
:10413000002D18DA04E0484B994220DD002D12DDF5
:104140000220FCF753F9FFF738F805460E46002227
:1041500053465846214601F023FD18B066F31E0170
:104160002846BDE8F08D0220FCF740F9FFF72CF857
:104170000A46214618B062F31E01BDE8F08D002208
:104180003046614601F032FF80460E466FF0010274
:1041900002F069FB4FF05532394B01F035FE4246D3
:1041A000334601F0FDFC0022364B01F02DFE824625
:1041B0004246334604911046194601F0F1FC52463E
:1041C000049B01F0EDFC8A4600904FF0C0422E4B5C
:1041D0004046314601F0E4FC2C4A2B4B00E027E03E
:1041E000CDE906015146009801F0DAFC82460191C2
:1041F000274A284B4046314601F0D2FC5246019BEB
:1042000001F0F4FE82460B4602460591DDE9060107
:1042100001F0E0F9DDE9062300268846304601F08A
:10422000E5FE5246059B01F0EFFD024600F07EB927
:104230000020B1F5801F07DA35223046614602F0D2
:1042400012FB06466FF0340000EB215024E0000022
:10425000FFFF1F00FFFF0F000000F03F0000F07F96
:104260000000404301FCFFFF8A2E00000000F0FF29
:104270000000F0BF0000E0410000F043FFFFEF3F0F
:104280005555D53F0000E03F4715F73FFE822B65AF
:1042900044DF5DF80BAE543EA0F2FF300190C1F355
:1042A000130040F07F6141F040510291FE49884285
:1042B000D8BF002004DDFD498142C8BF012001DDD7
:1042C0000D9008E000200D900198401C019002988C
:1042D000A0F5801002900299F54878440B910D9951
:1042E00000EBC100D0E900230F9330460A920B99EE
:1042F00001F07CFECDE90601DDE90A2130460F9B85
:1043000001F068F902460B460020EA4901F01EFA66
:10431000059102460B460090DDE9060101F040FCE4
:104320001490E5488A464FF00008784402990068E6
:1043300012904FF0005040EA61010D980F9B01EB85
:10434000804000F5002109910A9A129801F04EFE72
:1043500032460B9B01F058FD4246534601F020FCCB
:104360000646029140465146099B129A01F018FCFC
:10437000DDE9062301F048FD3246029B01F036FEDE
:10438000059B009A01F00CFC0091149A049053468E
:104390001046194601F004FC06460246C7480B4683
:1043A000029106217844FEF729FECDE90510029B13
:1043B00032461046194601F0F3FBDDE9053201F003
:1043C000EFFB05910646534640461946149A01F004
:1043D00001F9009B049A01F0E3FB3246059B01F0D2
:1043E000F9F8CDE90510424653461046194601F04A
:1043F000D7FB0022B24B02910A9001F0EBF8DDE905
:10440000053201F0E7F80E464246AD4B404601F05A
:10441000EDFD029B0A9A01F0E9FDDDE9053201F0AC
:10442000F3FC424602910A9033461046514601F091
:10443000B7FBCDE906015346149A02990A9801F098
:10444000AFFB8A460290334642460099049801F039
:10445000A7FB5346029A01F0BDF882460B4602467E
:104460000591DDE9060101F0B5F8DDE9062300203C
:104470008846064601F0BAFD5246059B01F0C4FC91
:10448000824609914FF060428E4B3046414601F022
:1044900087FB049006918C4A8A4B5046099901F09B
:1044A0007FFB82460291894A894B3046414601F0A2
:1044B00077FB5246029B01F08DF8864B7B440D9AA8
:1044C00003EBC203D3E9002301F084F80E900791B7
:1044D000019801F0FEFA0591DDE9061382460E9A75
:1044E000049801F077F87C4A7A440D9B02EBC303F1
:1044F000D3E900230093029201F06CF85246059B29
:1045000001F068F80026884652463046059B01F0C7
:104510006DFD009B029A01F069FD069B049A01F073
:1045200065FD079B0E9A01F06FFC024600200B46CA
:1045300002903846294601F033FB824601912B4612
:1045400038461946029A01F051FD3246434601F0C1
:1045500027FB5246019B01F03DF807468A4632464A
:1045600043462946029801F01BFB05460E463A4693
:10457000534601F02FF8594A8846914221DBA8EBB7
:10458000020353EA000210D12A46334601F02EFD01
:10459000CDE90401524A534B3846514601F01AF80E
:1045A000DDE9042301F0FAFB21D20220FBF71EFF14
:1045B000FEF703FE0A46214618B062F31E01BDE86D
:1045C000F08D494B28F000429A4210D3474A08EB3D
:1045D000020353EA00027FF4C6AD2A46334601F0D7
:1045E00005FD3A46534601F0D9FB7FF6BCAD0022EB
:1045F000019228F000403E493E4A01EB20518242A0
:1046000023DA481C4FF4801121FA00F040443A4A62
:10461000C0F30A517A44394BA1F2FF31CB4020EA72
:104620000303C0F3130040F48010C1F11401C8402B
:1046300012680190B8F1000FBCBF404201902846BB
:10464000314601F0D3FC05460E462A46334638462D
:10465000514600F0BFFF4FF000084246284B40464D
:10466000059101F09DFACDE90601264A264B404608
:10467000059901F095FA009102902A46334640468A
:10468000059901F0B3FC3A46534601F0BDFB1F4AC1
:104690001F4B01F085FA009B029A00F09BFF074632
:1046A000884602460B4635E08E9803007AB60B002A
:1046B0000A2A00000000F03F0A2B000070290000C9
:1046C0000000084009C7EE3FFD033ADCF5015B142A
:1046D000E02F3EBE482800000C280000000090405B
:1046E000FE822B654715973C00CC904000346F3F0D
:1046F00001FCFFFF0000E03F20280000FFFF0F004B
:10470000432EE63F396CA80C615C20BEEF39FAFEFF
:10471000422EE63FDDE9060100F05CFFDDE90623FD
:1047200005460E4601F062FC3A46434601F06CFB3A
:104730000F462A46334600901046194601F030FADB
:10474000824602462E4888460B4605217844FEF7ED
:1047500055FC5246434601F023FA2A46334601F0FF
:1047600053FB80468A463B4628463146009A01F074
:1047700017FA3B46009A00F02DFF069100900022A8
:104780004FF080434046514601F030FC0F460C90FC
:10479000424653462846314601F002FA3B460C9AFF
:1047A00000F0D4FF069B009A01F020FC2A46334615
:1047B00001F01CFC0022134B01F026FB054601987A
:1047C0000E4601EB00510815002810DC2846314642
:1047D000019A02F048F8FEF7AAF9042808BFFEF78C
:1047E000F3FC28463146019A02F03DF805460B4697
:1047F00018B02A4658462146BDE8F04D01F0D0B920
:10480000F82500000000F03F2DE9F041184C0F465C
:10481000054666692068001D00F0DCFB38B9206899
:1048200090F82C1001208840A1698143A161681C87
:1048300007D137B12168BDE8F0410E48091D00F0ED
:104840000DBC20683544B5424560216805D2A0689A
:10485000BDE8F041091D00F0E9BB6068091D00F0EA
:10486000E5FB206B854200D22563BDE8F0810000A6
:1048700028000020740600202DE9F041054600F0D4
:10488000F9FB2E4C2069401C206120682C4F10B190
:10489000E06940B32DE025602069012829D1002678
:1048A00006EB860007EB800000F0B2FB761C072EBB
:1048B000F6D323488C3000F0ABFB2148A03000F049
:1048C000A7FB1F48B43000F0A3FB1D48C83000F020
:1048D0009FFB1B48DC3000F09BFB19488C3060606C
:1048E0001430A06005E02068E96AC06A884200D8F8
:1048F0002560E06A401CE062E96A0120A269884004
:104900001043A06101EB810007EB8000291D00F03E
:10491000A5FB00F0CFFBE06900280CD02068E96A15
:10492000C06A884207D207494FF080500860BFF341
:104930004F8FBFF36F8FBDE8F0810000280000208B
:104940009805002004ED00E010B5044690F85100F1
:1049500058B101280CD002280FD0502080F31188C4
:10496000BFF34F8FBFF36F8FFEE7206B00F0B6FBF6
:104970002046BDE8104000F0B1BB10BD10484FF418
:104980004061420706D0C01D0D4920F00700411AC2
:10499000C1F540610B4A00230144C2E90003083914
:1049A000103A21F0070111604B600B600B1AC0E94F
:1049B000001393604FF000405360D06070470000D8
:1049C0008806002074000020144E154CA6F1C8077C
:1049D0004FF08058DFF84C9012E000BF00F04AFB27
:1049E000F068C568281D00F0F5FA2069401E2061B6
:1049F000E068401EE06000F05DFB2846FFF7A4FF82
:104A0000E0680028EAD138680128F9D9C9F800809F
:104A1000BFF34F8FBFF36F8FF2E7000060060020F7
:104A20002800002004ED00E02DE9F0479A46DDE97A
:104A3000098481466FF00303206B03EB820210446C
:104A4000089D20F00706700707D0502080F31188DA
:104A5000BFF34F8FBFF36F8FFEE723180A5C83F815
:104A600034200A5C12B1401C1028F6D3002784F8C9
:104A70004370072D00D30625E562C4E91157201DB8
:104A800000F0D1FA04F1180000F0CDFA2461C5F16C
:104A900007006462A061E76484F85070524649469A
:104AA000304600F0BFF82060B8F1000F01D0C8F820
:104AB0000040BDE8F087000030B5114900E0114624
:104AC0000A688242FBD34B685C18844203D1406879
:104AD00018444860084643681C18944209D1084CA1
:104AE000103C2468A24209D052681A4442600A6805
:104AF00012680260814200D0086030BD0460F9E7AE
:104B00007400002006484168096829B14168C968F5
:104B1000C9684968016370474FF0FF31FAE7000048
:104B20002800002008484068401C4FF0500080F3E7
:104B3000118804D0BFF34F8FBFF36F8FFEE7BFF331
:104B40004F8FBFF36F8FFEE77C0000202DE9F0410F
:104B50000546002700F05EFB314E306808B9FFF7CC
:104B60000DFFF06805424BD1C5B3083568070ED07C
:104B700005F00700C0F108000544680707D0502081
:104B800080F31188BFF34F8FBFF36F8FFEE72DB314
:104B90007068854234D82248103001460C6801E024
:104BA00020460C466168A94202D221680029F7D14B
:104BB00031688C4224D0076821680160606808373A
:104BC000411B10290FD96019420708D0502080F3EB
:104BD0001188BFF34F8FBFF36F8FFEE710E0416086
:104BE0006560FFF769FF61687068401A7060B268BD
:104BF000904200D2B060F06801430020C4E9000197
:104C000000F054FC780707D0502080F31188BFF3E0
:104C10004F8FBFF36F8FFEE73846BDE8F08100008D
:104C20006400002010B5031F4FF080741C601B1F30
:104C300021F001011960191F024B0B601439403833
:104C40000A6010BD254B00085389834210D1487873
:104C50000B7800EB03201080C8788B7800EB0320E2
:104C6000508048790B7900EB03209080C879D08080
:104C7000704700002DE9FF4F8FB08B464FF0804406
:104C80000F9801F09DFACDE90401DDE9110101F071
:104C9000C3FA01F095FACDE90201584601F090FA05
:104CA00089468046DDE902010022A2462346FFF73D
:104CB000BFF806460F464046494600225346FFF7D6
:104CC000B7F804460D46DDE9040100225346FFF71C
:104CD000AFF822462B4600F07DFC32463B4601F001
:104CE0005DF824D2DDE904210B4640464946FEF733
:104CF000A5FBFEF7DFFD02460B46DDE9020100F0F1
:104D00004FFF00F035FC0F9001F05AFA02460B46B7
:104D100040464946FEF792FB00F0E6F802460B4695
:104D2000DDE9020100F03CFF00F022FC8346012196
:104D3000119801F0C6FD129901F0F0FB01F040FA64
:104D400080468946129801F03BFA00224FF08043DA
:104D5000FFF76EF806460F46119801F031FA00226F
:104D60004FF08043FFF764F804460D46584601F0C3
:104D700027FA00224FF0804300910490FFF758F883
:104D800082468B460F9801F01BFA00224FF08043B9
:104D9000CDE90201FFF74CF852465B4600F01AFCE1
:104DA00022462B4601F022F932463B4601F01EF91D
:104DB00042464B4600F0CAFC00F0DAFB8046002475
:104DC00001F0FEF90E46054600224FF08043FFF742
:104DD0002FF80022314B01F017F800F0C9FB304FDB
:104DE00010F1FF4F06D32F4A0146104601F062FB37
:104DF0003FD200201C9901293ED0022944D04FF017
:104E00004040386531462E460D46204601F0D8F91F
:104E100032462B46FEF712FB00F0AAFB1D994860B4
:104E20004146129801F07AFB119901F0F5F901F071
:104E3000C7F906460D462146129801F06FFB01F0B6
:104E4000BFF932462B46FEF7F9FA0C46DDE902219E
:104E500005460B4600990498FEF7F0FA2A462346C9
:104E600001F0C4F800F084FB1D99086013B0BDE8A0
:104E7000F08F0D483865F9E701F0A2F900F084F8E9
:104E800000F076FB0446BDE701F09AF900F07CF8EB
:104E900000F06EFB80F00044B4E700000000F03F3B
:104EA00090000020CDCCCCBD000080BF7CB5060AB0
:104EB0008DF800608DF80100080ADDE906458DF8DF
:104EC0000200100A8DF804008DF80520180A8DF8EC
:104ED00006008DF803108DF8073008236A46214636
:104EE0002846FBF7C5FB7CBD00B5254B21F00042F1
:104EF00087B09A4203DC0022134600922BE0214B3C
:104F00009A4208D140B94FF00100FBF76FFAFEF763
:104F10004EF907B000BD03DBFEF744F907B000BD52
:104F200002AAFDF729FE10F003014FF001000DD099
:104F3000012914D002291AD00DF1080C9CE80F00A9
:104F4000FDF7DEFF07B081F0004100BD0DF1080C58
:104F500000909CE80F00FEF7A7F807B000BD0DF128
:104F6000080C9CE80F00FDF7CBFF07B000BD0DF16A
:104F7000080C00909CE80F00FEF796F8E2E70000AE
:104F8000FB21E93F0000F07F2DE9F04106460F4686
:104F900000F046FF041E0D4618BF0120284320F0F4
:104FA0000040C0F17F6000F1E040C00F0ED0301C27
:104FB00018BF0120384320F00040C0F17F6000F1AD
:104FC000E040C00F04BF0120FBF710FA204629463D
:104FD000BDE8F081D0E9013201699A60D0E901238E
:104FE0005A604A68824201D182684A6000220261A6
:104FF0000868401E0860086870470000034B0360A3
:1050000003F154000860802010607047D001002038
:1050100000F108014FF0FF32C0E90112C1600161E7
:1050200000210160704700210161704730B50B68B5
:105030005A1C02D000F1080202E0026904E0224694
:10504000546825689D42FAD953684B6099608A601C
:10505000516008610168491C016030BD42684A60C6
:1050600093688B6093685960916008610168491C7E
:1050700001607047502080F31188BFF34F8FBFF35A
:105080006F8F0A494868401C486001280CD10848C5
:10509000006810F0FF0F07D0502080F31188BFF395
:1050A0004F8FBFF36F8FFEE7704700007C0000203A
:1050B00004ED00E00849486828B1401E486001D16D
:1050C00080F311887047502080F31188BFF34F8F11
:1050D000BFF36F8FFEE700007C00002070B5002852
:1050E00027D0144DA0F108046168E868014207D197
:1050F000502080F31188BFF34F8FBFF36F8FFEE70F
:1051000022683AB1502080F31188BFF34F8FBFF36C
:105110006F8FFEE78143616000F07CF8606869682A
:10512000084468602046FFF7C7FCBDE8704000F007
:10513000BDB970BD640000204FF0E0200021016186
:10514000816105494FF47A720968B1FBF2F1491E99
:1051500041610721016170472400002010B5020061
:1051600014D00F48806B38B1502080F31188BFF302
:105170004F8FBFF36F8FFEE700F04CF80021104611
:10518000FFF742FB00F092F9002807D105494FF0E4
:1051900080500860BFF34F8FBFF36F8F10BD0000CA
:1051A0002800002004ED00E010B586B00024039430
:1051B00005AA04A903A80494FFF720FFDDE9030171
:1051C0000094CDE9011000230EA11048059A00F0CB
:1051D000D8F80F490028486311D0502080F3118877
:1051E000BFF34F8FBFF36F8F4FF0FF300863012085
:1051F000C8614C6106B0BDE8104000F041B806B08F
:1052000010BD000049444C4500000000C949000899
:10521000280000200248816B491C81637047000010
:10522000280000201448816B11B1012141627047B0
:10523000002141628169B1FA81F1C1F11F0101EBE5
:1052400081020E4951F822306BB101EB820101F16C
:1052500008034A6852684A609A4201D152684A601B
:10526000D16801607047502080F31188BFF34F8FE1
:10527000BFF36F8FFEE70000280000209805002094
:105280001CB5264908780190FF20087008788DF831
:1052900000009DF800009DF8002000F0F000904212
:1052A00007D0502080F31188BFF34F8FBFF36F8F6B
:1052B000FEE79DF800001A4B00F050001870072020
:1052C000986005E09DF8002052008DF80020401EF7
:1052D0009DF800201206F5D49860032807D05020CE
:1052E00080F31188BFF34F8FBFF36F8FFEE74FF44A
:1052F00040709860019808700A48016841F4700194
:105300000160016841F070410160FFF715FF002066
:105310005860FAF76BFF00201CBD000000E400E0BD
:105320007C00002020ED00E02DE9FF5F8346DDE9F1
:105330000E87994616468A469000FFF707FC05003F
:105340001CD05420FFF702FC040014D00020256379
:1053500084F85100CDE90240CDE900874B46324642
:1053600051465846FFF760FB2046FFF785FA0120BB
:1053700004B0BDE8F09F2846FFF7B0FE4FF0FF30C5
:10538000F6E7F0B585B0DDE90B640A9DA6B1DCB1A6
:10539000542700972663022684F85160002604AF44
:1053A000CDE90246CDE90057FFF73EFB2046FFF767
:1053B00063FA049805B0F0BD502080F31188BFF364
:1053C0004F8FBFF36F8FFEE7502080F31188BFF33C
:1053D0004F8FBFF36F8FFEE70148406970470000B1
:1053E000280000202DE9F0412E4C0027A06B40B191
:1053F000206A401C2062606A00B101273846BDE87F
:10540000F0816669761C666113D16068006838B106
:10541000502080F31188BFF34F8FBFF36F8FFEE7EB
:105420006068A1686160A060A06A401CA062FFF78C
:1054300069FB206BDFF87080864209D360680068E2
:1054400080B16068C068C568686886420DD2206314
:105450002068C06A00EB800158F821000128CAD9F1
:105460000127C8E74FF0FF30F1E7281DFFF7B2FD35
:10547000A86A18B105F11800FFF7ACFDE86A012130
:10548000A26981401143A16100EB800108EB81001A
:10549000291DFFF7E3FDE86A2168C96A8842CDD378
:1054A0000127CBE728000020980500202DE9F047D0
:1054B0002C4D00242746A86B38B1FFF7DBFDA86B05
:1054C000401EA863A86B40B146E0502080F31188CD
:1054D000BFF34F8FBFF36F8FFEE72969224E012084
:1054E000D1B3A6F1B40980463068E8B1F068C46869
:1054F00004F11800FFF76EFD201DFFF76BFDE06A59
:10550000AA6908FA00F11143A96100EB800109EBD7
:105510008100211DFFF7A2FDE06A2968C96A88425F
:10552000E2D3C5F82480DFE70CB1FFF7EBFA2C6A71
:1055300044B14646FFF756FF00B16E62641EF9D1D2
:1055400000202862686A38B10849012738070860D6
:10555000BFF34F8FBFF36F8FFFF7ACFD3846BDE849
:10556000F0870000280000204C06002004ED00E039
:1055700021F00042A2F16052B2F5801F01F0004319
:1055800028BFD2F17F6C0BD95FEA001C43EAC2024C
:1055900042EB507018BF704728BF20F001007047E1
:1055A000B2F5801FBCBF184670474FEA410C1CF58E
:1055B000001F02D2084601F078B870B500F09AFBDF
:1055C00000000089FFF7F6BF4FF00040A0F5800013
:1055D0007047000010B591EA030F48BF83F0004305
:1055E00000F10C85841A71EB030C05D2121943EB00
:1055F0000C03001B61EB0C01DFF824E14FEA1154AE
:10560000A4EB135C1EEA430F18BF9EEA445F73D0FD
:1056100023EA0E03DCF1200E21EA045143F4801347
:1056200032D322FA0CFE10EB0E0023FA0CFE41EBF3
:105630000E01CCF1200E03FA0EFE10EB0E0051F11C
:105640000001B1F5801FCCF1200E32D201EB0451E4
:1056500012FA0EF2BDE8104058BF7047401C38BF28
:105660005FEA420218BF7047002814BF20F0010013
:1056700041F100014FEA410313F5001F38BF7047A5
:10568000A1F1C04100F084BB012A43EB0302ACF15D
:10569000200CDCF11F0E32BF4FF0000E23FA0CF38A
:1056A00010EB030041EB0451B4EB115FD0D0A1EB40
:1056B000045101F5801149085FEA300001EB045103
:1056C0000ED350F1000038BF12FA0EFE08D1BDE82B
:1056D0001040C9E7401C38BF5FEA4202CAD1C3E7A5
:1056E000BDE810404FEA410313F5001F38BF704773
:1056F000A1F1C04100F04CBB9EEA445F08D011EA22
:105700005E0FBDE8104004BF01F00041002070476B
:10571000BDE8104070B500F0EDFA00BF64FBBE3E7E
:105720000000E0FF02494FF0000001F06AB800BF3E
:105730000000F87F491058BFC1F140415B1058BFCD
:10574000C3F140438B42EFF3008070472DE9C04125
:1057500030B4DFF8A0C23CEA111418BF3CEA1314BD
:1057600000F0EC8081EA03051CEA111444EAD574C8
:1057700018BF1CEA131500F0C780A4EB05044FF016
:10578000004545EAC12145EAC32341EA505143EAB5
:10579000525304F17F74994204F500344FEAC0205B
:1057A0004FEAC22208BF904200F09C804FEA136586
:1057B0000FF24016765D4FEA134506FB05F7C7F179
:1057C000807706FB07F74FEAD737A7FB03687642D7
:1057D000C8F58038A7FB06CE38BFA8F1010807FB43
:1057E00008E64FF0000EA6FB028CE6FB03CEDCF1D0
:1057F000000CCEF1004E38BFAEF1010EA6FB0C58E6
:105800004FF000074FF00005E6FB0E87A1FB08C62E
:10581000A0FB07CE16EB0E0645F10005E1FB076580
:1058200015F1E04E7EBFA4F580345FEA46066D4177
:1058300016F1800745F100054FEA17274FEA066683
:1058400047EA0567A6F1DE46B6F1805F4FEA152507
:105850001FD9384624F0010C05EBC471BCF1FE6F72
:1058600001EB0C1102D8F0BCBDE8008124425CBF02
:1058700001F5801E9EEAC47F02D4F0BCBDE8008121
:10588000244238D4F0BCA1F1C041BDE8004100F091
:105890007FBA4FEAD22242EA43524FEAD323A7FB10
:1058A00002864FEAD02040EA415007FB03661EEA19
:1058B0000E0F4FEAD12105FB026658BFA6EB00563A
:1058C000B6EB00564FEA520E4EEAC37E18EB0E0EB0
:1058D00056EB530EBDD518EB02085E417F1C55F107
:1058E0000005B6E74FF480154FF000074FF00006B3
:1058F0004FF00008ADE7F0BC4FF0000001F1C041EF
:1059000001F00041BDE8008111EA0C1F0CEA1315FB
:1059100000D00CE013EA0C1F00F025804FF00000CF
:10592000F0BC81EA030101F00041BDE80081F0BC58
:10593000BDE8004181EA030100F02ABAF0BCBDE8ED
:10594000004170B500F0D6F9097EFC3E00F007B8C2
:1059500081EA03014FF0000001F00041704781EA45
:10596000030100F015BAF0BCBDE800414FF00000A3
:1059700021497047FFFDFBF9F7F5F4F2F0EEEDEB8E
:10598000E9E8E6E4E3E1E0DEDDDBDAD8D7D5D4D33D
:10599000D1D0CFCDCCCBCAC8C7C6C5C4C2C1C0BF89
:1059A000BEBDBCBBBAB9B8B7B6B5B4B3B2B1B0AF8F
:1059B000AEADACABAAA9A8A8A7A6A5A4A3A3A2A173
:1059C000A09F9F9E9D9C9C9B9A999998979796952E
:1059D00095949393929191908F8F8E8E8D8C8C8BCA
:1059E0008B8A898988888787868585848483838252
:1059F000828181800000FF070000F87F51EA030CDC
:105A000017D41CF5801F58BFBCF5801F00F106801D
:105A1000994218BF704708BF9042704707D711F5E9
:105A2000801F58BF13F5801F19D4994270478942CF
:105A300070471CF5801F08D5BCF5801FF7D58B4239
:105A400018BF704708BF824270474FF4001C1CEB20
:105A5000410F38BF1CEB430F01D28B42704770B52A
:105A600000F048F9922449004FF000514FF0805364
:105A7000FFF760BE4FEA41034FEA5353A3F580633B
:105A8000D3F11E03C8BFD3F1210C0CDD4FF000424F
:105A900042EAC12242EA505232FA03FC8CEAE17C2B
:105AA000ACEBE1707047102BC4BF0020704703F5CA
:105AB000787CBCF1FF3F04D06FF0004282EA210005
:105AC000704770B500F016F94992248000207047A5
:105AD000F2E710F0004248BF4042B0FA80F310FAFB
